:020000040800F2
:100000000080012021230008690600086B06000813
:100010006D0600086F060008710600080000000069
:10002000000000000000000000000000B1200008F7
:10003000730600080000000051210008B5210008E7
:100040007123000871230008712300087123000840
:100050007123000871230008712300087123000830
:100060007123000871230008712300087123000820
:100070007123000871230008712300087123000810
:10008000712300087123000871230008000000009C
:1000900000000000000000000000000071230008C4
:1000A00071230008750600087123000871230008F9
:1000B00071230008712300087123000871230008D0
:1000C00071230008712300087123000871230008C0
:1000D000712300087123000871230008000000004C
:1000E000712300087123000871230008000000003C
:1000F0000000000000000000000000007123000864
:10010000000000007123000871230008712300081B
:1001100000000000000000000000000000000000DF
:10012000712300087123000871230008712300085F
:100130007123000800000000000000000000000023
:100140000000000000000000000000007123000813
:10015000712300087123000871230008712300082F
:100160007123000871230008000000000000000057
:10017000000000000000000000000000000000007F
:1001800000000000712300080000000000000000D3
:0401900071230008CF
:1001A00010B5054C237833B9044B13B10448AFF3B1
:1001B00000800123237010BD10000020000000000B
:1001C000CC23000808B5034B1BB103490348AFF328
:1001D000008008BD0000000014000020CC230008AF
:1001E00053B94AB9002908BF00281CBF4FF0FF319E
:1001F0004FF0FF3000F074B9ADF1080C6DE904CE9A
:1002000000F006F8DDF804E0DDE9022304B07047F1
:100210002DE9F047089D04468E46002B4DD18A42B9
:10022000944669D9B2FA82F252B101FA02F3C2F1EC
:10023000200120FA01F10CFA02FC41EA030E94407D
:100240004FEA1C48210CBEFBF8F61FFA8CF708FB9E
:1002500016E341EA034306FB07F199420AD91CEB76
:10026000030306F1FF3080F01F81994240F21C81A8
:10027000023E63445B1AA4B2B3FBF8F008FB1033F0
:1002800044EA034400FB07F7A7420AD91CEB040425
:1002900000F1FF3380F00A81A74240F207816444F5
:1002A000023840EA0640E41B00261DB1D44000237A
:1002B000C5E900433146BDE8F0878B4209D9002DDE
:1002C00000F0EF800026C5E9000130463146BDE868
:1002D000F087B3FA83F6002E4AD18B4202D38242D2
:1002E00000F2F980841A61EB030301209E46002D81
:1002F000E0D0C5E9004EDDE702B9FFDEB2FA82F2D6
:10030000002A40F09280A1EB0C014FEA1C471FFA33
:100310008CFE0126200CB1FBF7F307FB131140EA1A
:1003200001410EFB03F0884208D91CEB010103F1E7
:10033000FF3802D2884200F2CB804346091AA4B2A9
:10034000B1FBF7F007FB101144EA01440EFB00FE7D
:10035000A64508D91CEB040400F1FF3102D2A645E2
:1003600000F2BB800846A4EB0E0440EA03409CE781
:10037000C6F12007B34022FA07FC4CEA030C20FA2E
:1003800007F401FA06F31C43F9404FEA1C4900FA4E
:1003900006F3B1FBF9F8200C1FFA8CFE09FB1811CB
:1003A00040EA014108FB0EF0884202FA06F20BD93E
:1003B0001CEB010108F1FF3A80F08880884240F28E
:1003C0008580A8F102086144091AA4B2B1FBF9F0D2
:1003D00009FB101144EA014100FB0EFE8E4508D9CD
:1003E0001CEB010100F1FF346CD28E456AD9023852
:1003F000614440EA0840A0FB0294A1EB0E01A14237
:10040000C846A64656D353D05DB1B3EB080261EBA4
:100410000E0101FA07F722FA06F3F1401F43C5E97E
:10042000007100263146BDE8F087C2F12003D840B4
:100430000CFA02FC21FA03F3914001434FEA1C47F6
:100440001FFA8CFEB3FBF7F007FB10360B0C43EAE8
:10045000064300FB0EF69E4204FA02F408D91CEB98
:10046000030300F1FF382FD29E422DD90238634496
:100470009B1B89B2B3FBF7F607FB163341EA034136
:1004800006FB0EF38B4208D91CEB010106F1FF3885
:1004900016D28B4214D9023E6144C91A46EA00467C
:1004A00038E72E46284605E70646E3E61846F8E60E
:1004B0004B45A9D2B9EB020864EB0C0E0138A3E757
:1004C0004646EAE7204694E74046D1E7D0467BE738
:1004D000023B614432E7304609E76444023842E7B0
:1004E000704700BF82B000230193064B1A6B42F0A5
:1004F00001021A631B6B03F001030193019B02B01D
:10050000704700BF0038024000B585B0094BEC468B
:100510000FCBACE80700ACF800304FF0FF330D22F2
:100520006946054800F0F1FB4FF47A7001F086FC53
:10053000ECE700BFE42300082C00002008B50268A7
:10054000034B9A4200D008BD01F0F2F8FBE700BF70
:100550000000014072B6FEE708B50A480A4B036086
:100560004FF4E133436000238360C36003610C22D6
:1005700042618361C36100F098FB00B908BDFFF7D9
:10058000E9FF00BF2C0000200044004000B595B0FA
:100590003022002108A801F011FF002303930493E7
:1005A00005930693079301931F4A116C41F0805104
:1005B0001164126C02F080520192019A02931B495D
:1005C0000A6822F4404242F400420A600A6802F4D7
:1005D00040420292029A0221089101220B921022BB
:1005E0000C920E910F9310924FF4A8731193042361
:1005F00012930723139308A800F0EEFB80B90F2392
:10060000039302210491002305934FF48052069234
:10061000079303A800F046FE20B915B05DF804FB6F
:10062000FFF798FFFFF796FF003802400070004088
:1006300000B585B001F062F8FFF7A8FFFFF752FFA1
:10064000FFF78AFF00230293019301220092802288
:100650000349044801F06CFA01F0A6FAFEE700BF76
:10066000F423000809050008FEE7FEE7FEE7FEE7C1
:10067000FEE7704708B5024800F0ECF808BD00BF7F
:100680007400002000B583B0002200920D4B596C1D
:1006900041F480415964596C01F480410091009902
:1006A0000192196C41F0805119641B6C03F0805366
:1006B0000193019B0F216FF0010000F0D9FF03B0FF
:1006C0005DF804FB0038024000B589B000230393B5
:1006D00004930593069307930268154B9A4202D040
:1006E00009B05DF804FB0021019103F5FA331A6C9F
:1006F00042F400321A641A6C02F400320192019A38
:1007000002911A6B42F001021A631B6B03F00103A2
:100710000293029B0C230393022304930323069367
:100720000723079303A9034800F0B0FED8E700BFF2
:10073000004400400000024030B589B00546002466
:1007400001941E4B5A6C42F001025A645B6C03F038
:1007500001030193019B02A903A800F079FE00F0B8
:1007600067FE03461648A0FB03239B0C013B15487C
:10077000154A026040F2E732C2604360046184605F
:10078000846100F069F9044610B1204609B030BD1B
:100790000C4800F01FF804460028F6D1192000F09C
:1007A0009FFF0F2D01D90124EFE7002229461920D0
:1007B00000F05EFF054B1D60E7E700BF0038024018
:1007C00083DE1B4374000020000001400400002071
:1007D0007047000090F83D30DBB2012B2FD102238F
:1007E00080F83D300268D36843F00103D3600368AA
:1007F000154A934218D0B3F1804F15D0A2F57C4230
:10080000934211D002F5806293420DD002F58062CE
:10081000934209D002F59A32934205D01A6842F009
:1008200001021A60002070479A6802F00702062A47
:1008300007D01A6842F001021A60002070470120B8
:1008400070470020704700BF0000014070477047AC
:100850007047704770B504460368DE681D6915F07F
:10086000020F10D016F0020F0DD06FF002021A61C5
:100870000123037703689B6913F0030F5ED0FFF732
:10088000E6FF0023237715F0040F12D016F0040FB3
:100890000FD023686FF004021A61022323772368C4
:1008A0009B6913F4407F4FD02046FFF7D0FF002311
:1008B000237715F0080F12D016F0080F0FD0236819
:1008C0006FF008021A61042323772368DB6913F0B1
:1008D000030F40D02046FFF7BAFF0023237715F01F
:1008E000100F12D016F0100F0FD023686FF0100207
:1008F0001A61082323772368DB6913F4407F31D022
:100900002046FFF7A4FF0023237715F0010F02D044
:1009100016F0010F2DD115F0800F02D016F0800FC8
:100920002FD115F0400F02D016F0400F31D115F045
:10093000200F02D016F0200F33D170BDFFF786FFD5
:100940002046FFF785FF9CE72046FFF77FFF204604
:10095000FFF77EFFABE72046FFF778FF2046FFF763
:1009600077FFBAE72046FFF771FF2046FFF770FFD9
:10097000C9E723686FF001021A612046FFF7DEFD28
:10098000C9E723686FF080021A61204600F091F8F1
:10099000C7E723686FF040021A612046FFF759FF4E
:1009A000C5E723686FF020021A61204600F080F846
:1009B000C3E700000368274A90420ED0B0F1804F91
:1009C0000BD0A2F57C42904207D002F580629042A3
:1009D00003D002F58062904203D123F070034A688D
:1009E00013431C4A90421AD0B0F1804F17D0A2F5A1
:1009F0007C42904213D002F5806290420FD002F503
:100A0000806290420BD002F59A32904207D002F5F4
:100A10008062904203D002F58062904203D123F4B9
:100A20004073CA68134323F080034A6913438A68FA
:100A3000C2620A688262074A904207D0026842F0A6
:100A40000402026001224261036070470A69026386
:100A5000F4E700BF0000014040B310B5044690F831
:100A60003D30F3B1022384F83D30214651F8040BA8
:100A7000FFF7A0FF012384F8463084F83E3084F865
:100A80003F3084F8403084F8413084F8423084F8B4
:100A9000433084F8443084F8453084F83D300020F9
:100AA00010BD80F83C30FFF793FEDBE70120704774
:100AB00070477047026802F10C0353E8003F23F4CB
:100AC00090730C3242E800310029F3D1026802F140
:100AD000140353E8003F23F00103143242E80031CD
:100AE0000029F3D1036B012B05D0202380F842307D
:100AF000002303637047026802F10C0353E8003FD0
:100B000023F010030C3242E800310029F3D1ECE766
:100B100038B504460268136923F44053C1680B4397
:100B2000136183680269134342691343C2691A431C
:100B30000168CB6823F4164323F00C031343CB6006
:100B40000268536923F4407381690B43536103685E
:100B5000314A934206D002F58062934202D000F0FF
:100B600057FC01E000F064FCE369B3F5004F29D0C5
:100B70000021031849411B1841F10001C90041EA55
:100B80005371DB00181863684FEA83024FEA9373CE
:100B900041F10001FFF724FB204DA5FB0032510974
:100BA000642303FB11031B013233A5FB03235B0901
:100BB00003F0F00202EB011203F00F03216813446B
:100BC0008B6038BD0023021843EB0301121841F17A
:100BD0000001C90041EA5271D200101841F1000130
:100BE000626892185B41FFF7FBFA0C4DA5FB0032DF
:100BF0005109642303FB1103DB003233A5FB0323FC
:100C00005B095A0002F4F87202EB011203F00703C9
:100C1000216813448B60D4E7001001401F85EB511D
:100C20002DE9F04383B005460E4617469946DDF898
:100C300028802C68246836EA04030CBF4FF0010CAE
:100C40004FF0000CBC4528D1B8F1FF3FF1D000F0C7
:100C50007BFDA0EB0900404523D8B8F1000F22D05E
:100C60002B68DA6812F0040FE3D0802EE1D0402E1A
:100C7000DFD01A6812F0080FDBD0002401941A6844
:100C800001925B680193019B2846FFF713FF08233D
:100C90006B6485F84040012000E0002003B0BDE80F
:100CA000F0830320FAE70320F8E760B310B50446A9
:100CB00090F8413013B3242384F841302268D3687C
:100CC00023F40053D3602046FFF722FF2268136904
:100CD00023F4904313612268536923F02A0353617C
:100CE0002268D36843F40053D3600020606420235B
:100CF00084F8413084F84230606310BD80F84030A1
:100D0000FFF7E2FCD7E7012070472DE9F04182B000
:100D10001E4690F84130DBB2202B56D104460D46DA
:100D20009046002955D00AB901204FE000234364C2
:100D3000212380F8413000F007FD0746A4F8248005
:100D4000A4F82680A368B3F5805F02D04FF00008B6
:100D500014E023692BB34FF000080FE0202384F840
:100D60004130032032E038F8023B2268C3F3080325
:100D70005360E28C92B2013A92B2E284E38C9BB26D
:100D800093B100963B46002280212046FFF748FFA2
:100D90000028E3D1002DE6D015F8012B23685A6016
:100DA000E7E7A8460025E9E700963B4600224021F8
:100DB0002046FFF735FF18B9202384F8413005E0BD
:100DC000202384F84130032000E0022002B0BDE877
:100DD000F0810120FAE70000002800F0E08170B502
:100DE00082B00446036813F0010F3BD09F4B9B6811
:100DF00003F00C03042B2CD09C4B9B6803F00C03DA
:100E0000082B21D06368B3F5803F4FD0B3F5A02FF6
:100E100052D0964B1A6822F480321A601A6822F473
:100E200080221A606368002B50D000F08DFC0546CC
:100E30008E4B1B6813F4003F14D100F085FC401B5F
:100E40006428F5D90320B1E1884B5B6813F4800F67
:100E5000D8D0864B1B6813F4003F03D06368002B87
:100E600000F09F81236813F0020F54D07F4B9B68E2
:100E700013F00C0F3ED07D4B9B6803F00C03082B46
:100E800033D0E368002B68D0794B01221A6000F060
:100E90005BFC0546754B1B6813F0020F54D100F044
:100EA00053FC401B0228F5D903207FE16F4A1368E9
:100EB00043F480331360B5E76C4B1A6842F4802228
:100EC0001A601A6842F480321A60ABE700F03CFC0A
:100ED0000546664B1B6813F4003FC3D000F034FC9A
:100EE000401B6428F5D9032060E1604B5B6813F474
:100EF000800FC6D15D4B1B6813F0020F03D0E3686F
:100F0000012B40F05081594A136823F0F8032169FE
:100F100043EAC1031360236813F0080F42D06369EA
:100F20006BB3534B0122C3F8802E00F00DFC054635
:100F30004E4B5B6F13F0020F34D100F005FC401BE9
:100F40000228F5D9032031E1484A136823F0F80359
:100F5000216943EAC1031360DDE7454B00221A60B3
:100F600000F0F2FB0546414B1B6813F0020FD2D094
:100F700000F0EAFB401B0228F5D9032016E13C4BA8
:100F80000022C3F8802E00F0DFFB0546374B5B6F75
:100F900013F0020F06D000F0D7FB401B0228F5D952
:100FA000032003E1236813F0040F77D02F4B1B6C51
:100FB00013F0805F33D1002301932C4B1A6C42F065
:100FC00080521A641B6C03F080530193019B01252E
:100FD000284B1B6813F4807F23D0A368012B34D0E7
:100FE000052B38D0214B1A6F22F001021A671A6FB5
:100FF00022F004021A67A368002B3DD000F0A4FB86
:1010000006461A4B1B6F13F0020F46D100F09CFBF3
:10101000801B41F288339842F3D90320C6E00025B3
:10102000D6E7144A136843F48073136000F08CFB16
:101030000646104B1B6813F4807FCED100F084FB72
:10104000801B0228F5D90320B0E0084A136F43F053
:1010500001031367CFE7054B1A6F42F004021A67CA
:101060001A6F42F001021A67C5E700BF003802405C
:10107000000047420070004000F066FB0646524BFD
:101080001B6F13F0020F08D000F05EFB801B41F2D3
:1010900088339842F3D9032088E0EDB9A369002B87
:1010A00000F08380484A926802F00C02082A51D06E
:1010B000022B17D0454B00221A6600F045FB044670
:1010C000414B1B6813F0007F42D000F03DFB001B3A
:1010D0000228F5D9032069E03B4A136C23F08053C2
:1010E0001364DBE7394B00221A6600F02DFB05463E
:1010F000354B1B6813F0007F06D000F025FB401B2A
:101100000228F5D9032051E0E369226A1343626A99
:1011100043EA8213A26A5208013A43EA0243E26AAE
:1011200043EA0263284A5360284B01221A6600F002
:101130000BFB0446244B1B6813F0007F06D100F024
:1011400003FB001B0228F5D903202FE000202DE02F
:1011500000202BE0012B2BD01B4B5B6803F480019C
:10116000E269914226D103F03F02216A8A4223D1EB
:10117000616A47F6C0721A40B2EB811F1ED103F4B8
:101180004031A26A5208013AB1EB024F18D103F084
:101190007063E26AB3EB026F14D1002006E0012015
:1011A0007047012002E0012000E0002002B070BD85
:1011B0000120FBE70120F9E70120F7E70120F5E72F
:1011C0000120F3E70120F1E7003802400000474228
:1011D00008B5314B9B6803F00C03042B57D0082B48
:1011E00057D12D4B5A6802F03F025B6813F4800F11
:1011F0002AD0294B5968C1F3881C4FEA4C11B1EB36
:101200000C006EEB0E0E4FEA8E1343EA90638101E1
:10121000091A63EB0E03DB0043EA5173C90011EBBB
:101220000C0C43F10003590200234FEA4C2041EA21
:10123000DC51FEF7D5FF184B5B68C3F30143013364
:101240005B00B0FBF3F025E0134B5968C1F3881C39
:101250004FEA4C11B1EB0C006EEB0E0E4FEA8E1301
:1012600043EA90638101091A63EB0E03DB0043EA52
:101270005173C90011EB0C0C43F1000399020023D8
:101280004FEA8C2041EA9C51FEF7AAFFD3E70348BE
:1012900000E0034808BD00BF0038024000127A0099
:1012A0000024F400002800F09B8070B50D46044631
:1012B0004F4B1B6803F007038B4208D2CBB24C4A5A
:1012C0001370136803F007038B4240F08B80236890
:1012D00013F0020F17D013F0040F04D0454A93689F
:1012E00043F4E0539360236813F0080F04D0414A9D
:1012F000936843F4604393603E4A936823F0F0039D
:10130000A1680B439360236813F0010F32D0636828
:10131000012B21D09A1E012A25D9364A126812F0D3
:10132000020F61D033498A6822F0030213438B60B5
:1013300000F00AFA06462F4B9B6803F00C03626824
:10134000B3EB820F16D000F0FFF9801B41F2883317
:101350009842F0D9032042E0264A126812F4003F76
:10136000E0D101203BE0234A126812F0007FD9D17E
:10137000012034E01E4B1B6803F00703AB4207D982
:10138000EAB21B4B1A701B6803F00703AB422DD166
:10139000236813F0040F06D0164A936823F4E05331
:1013A000E1680B439360236813F0080F07D0114ADC
:1013B000936823F46043216943EAC1039360FFF714
:1013C00007FF0C4B9B68C3F303130B4AD35CD84055
:1013D0000A4B18600A4B1868FFF7AEF9002070BD81
:1013E000012070470120FAE70120F8E70120F6E725
:1013F000003C0240003802400024000808000020A1
:1014000004000020014B1868704700BF080000204E
:1014100008B5FFF7F7FF044B9B68C3F38223034A29
:10142000D35CD84008BD00BF00380240102400083B
:1014300008B5FFF7E7FF044B9B68C3F34233034A49
:10144000D35CD84008BD00BF00380240102400081B
:101450000F2303600B4B9A6802F0030242609A6804
:1014600002F0F00282609A6802F4E052C2609B6867
:10147000DB0803F4E0530361034B1B6803F007032D
:101480000B60704700380240003C024000230F2BE5
:1014900000F2D28070B582B060E085685E000324FF
:1014A000B44025EA0405CC68B4402C438460456808
:1014B00025EA02054C68C4F300129A402A434260B0
:1014C0005AE0DC08083450F8246003F00702950065
:1014D0000F22AA4026EA020E0A69AA4042EA0E0238
:1014E00040F824205CE0042200E0002202FA0EF220
:1014F0002A430234514D45F82420514A94686FEA3A
:101500000C0224EA0C054E6816F4801F01D04CEA48
:1015100004054B4CA560E46802EA04054E6816F425
:10152000001F01D04CEA0405454CE560646802EAFE
:1015300004054E6816F4003F01D04CEA0405404C07
:101540006560246822404D6815F4803F01D04CEA64
:1015500004023B4C226001330F2B6BD801229A40CE
:101560000C6804EA020C32EA0404F4D14C6804F07A
:101570000304013C012C90D94A6802F00302032ABB
:1015800009D0C4685D000322AA4024EA02048A68E4
:10159000AA402243C2604A6802F00302022A90D0A5
:1015A00004684FEA430E032202FA0EF224EA020410
:1015B0004A6802F0030202FA0EF2224302604A680D
:1015C00012F4403FC7D0002201921E4A546C44F4EA
:1015D00080445464526C02F480420192019A9C0847
:1015E000A51C164A52F8255003F003024FEA820E5A
:1015F0000F2202FA0EF225EA0205134A90423FF446
:1016000074AF02F5806290420ED002F58062904283
:101610000CD002F5806290420AD002F580629042BE
:101620003FF461AF072261E701225FE702225DE735
:1016300003225BE702B070BD704700BF0038014075
:10164000003C01400038024000000240074AD368D5
:1016500023F4E0631B041B0C000200F4E06003436E
:1016600043F0BF6343F40033D360704700ED00E004
:1016700000B5194BDB68C3F30223C3F1070CBCF1BF
:10168000040F28BF4FF0040C03F1040EBEF1060F47
:1016900018D9033B4FF0FF3E0EFA0CFC21EA0C0177
:1016A00099400EFA03F322EA0303194300280BDBE7
:1016B0000901C9B200F1604000F5614080F80013F3
:1016C0005DF804FB0023E5E700F00F000901C9B253
:1016D000024B1954F4E700BF00ED00E014ED00E008
:1016E000002807DB00F01F02400901239340024A53
:1016F00042F82030704700BF00E100E008B50B4B16
:101700001A6842F400721A601A6842F480621A6021
:101710001A6842F480721A600320FFF797FF0F20C7
:10172000FFF70AF8FEF7AEFF002008BD003C0240BC
:10173000034A1168034B1B780B441360704700BFCA
:10174000BC00002000000020014B1868704700BF5B
:10175000BC000020034AD2F8883043F47003C2F87A
:101760008830704700ED00E0034B0360034B0B60D3
:1017700080231360704700BFC0020020C00000201B
:1017800000F1080343604FF0FF328260C3600361E1
:1017900000230360704700230361704743684B6078
:1017A0009A688A6051609960086103680133036038
:1017B000704730B40D68B5F1FF3F11D000F1080358
:1017C0001C465B681A68AA42FAD963684B60996044
:1017D0008C606160086103680133036030BC70474E
:1017E0000469F2E70369416882688A604168516070
:1017F0005A68824206D0002202611A68013A1A60D1
:101800001868704782685A60F5E70000084B1B684B
:101810001B6823B9074B4FF0FF321A607047044B27
:101820001B68DB68DB685A68024B1A60704700BFB0
:1018300018030020EC0300202DE9F04707469846E6
:10184000089DDDF824900A9C266B02F18042013A43
:1018500006EB820626F0070600293AD08E464FF0A6
:10186000000CBCF10F0F0BD81EF80C2004EB0C037E
:1018700083F834201EF80C3013B10CF1010CF0E7A2
:10188000002384F84330062D00D90625E5626564FF
:101890004FF0000AC4F848A0201DFFF77CFF04F1B8
:1018A0001800FFF778FF2461C5F10705A5616462A0
:1018B000C4F84CA084F850A042463946304600F0A7
:1018C000DDFB2060B9F1000F01D0C9F80040BDE890
:1018D000F087002384F83430D5E7000038B50024C1
:1018E00007E004EB840293000E481844FFF748FF1A
:1018F0000134062CF5D90C4D2846FFF741FF0B4C5F
:101900002046FFF73DFF0A48FFF73AFF0948FFF777
:1019100037FF0948FFF734FF084B1D60084B1C6078
:1019200038BD00BF20030020C0030020D4030020E6
:10193000F8030020240400201004002018030020D5
:101940001C03002010B5044600F0C4FB214A1368B4
:1019500001331360204B1B685BB1204B1B686BB9D4
:101960001D4B1B68DA6AE36A9A4207D81A4B1C605F
:1019700004E0194B1C601368012B28D0184A136827
:1019800001331360E06A01238340164A11680B4358
:10199000136000EB8000211D134B03EB8000FFF769
:1019A000FDFE00F0B9FB0D4B1B687BB10A4B1B68B9
:1019B000DA6AE36A9A4209D24FF0E0234FF080528C
:1019C000C3F8042DBFF34F8FBFF36F8F10BDFFF728
:1019D00085FFD3E7AC030020140300200C04002093
:1019E000B8030020BC0300202003002010B50446EB
:1019F00090F8513063B1012B11D0022B0ED04FF073
:101A0000500383F31188BFF36F8FBFF34F8FFEE74F
:101A1000006B00F0B7FA204600F0B4FA10BD00F0F9
:101A2000B1FAFBE70F4B1B68D3B110B500F052FBC6
:101A30000D4BDB68DC68201DFFF7D4FE0B4A1368F2
:101A4000013B1360074A1368013B136000F064FB1D
:101A50002046FFF7CBFF034B1B68002BE6D110BDE0
:101A6000704700BFB003002024040020AC03002016
:101A700008B5FFF7D7FF074B1B68012BF9D94FF0CB
:101A8000E0234FF08052C3F8042DBFF34F8FBFF314
:101A90006F8FEEE72003002070B504460D461D4B06
:101AA0001E681D4B18680430FFF79CFE50B91A4B96
:101AB0001B68DA6A012303FA02F218490B6823EA69
:101AC00002030B60B4F1FF3F0DD03444124B1B688E
:101AD0005C60A64210D9124B18680F4B196804318C
:101AE000FFF767FE70BD002DEFD00B4B1968043176
:101AF0000C48FFF753FEF5E70B4B1868064B1968C7
:101B00000431FFF756FE094B1B68A342EAD9074B85
:101B10001C60E7E73804002014030020BC03002009
:101B20001C0300201004002018030020EC030020F8
:101B300030B587B00B9C7CB10C9DB5B15425049594
:101B4000049D542D1AD04FF0500383F31188BFF336
:101B50006F8FBFF34F8FFEE74FF0500383F3118871
:101B6000BFF36F8FBFF34F8FFEE74FF0500383F348
:101B70001188BFF36F8FBFF34F8FFEE7049D0C9D5D
:101B80002C63022485F8514000240394029505AC8F
:101B900001940A9C0094FFF74FFE0C98FFF7D2FEC9
:101BA000059807B030BD000010B588B0002405943A
:101BB000069407AA06A905A8FFF7D6FD059B029380
:101BC000069B019300942346079A0E490E48FFF79F
:101BD000AFFF0E4B186090B14FF0500383F31188A4
:101BE000BFF36F8FBFF34F8F094B4FF0FF321A6077
:101BF000084B01221A60084B1C6000F005FB08B07E
:101C000010BD00BF18240008711A0008E803002066
:101C1000EC0300200C04002038040020024A136862
:101C200001331360704700BFB4030020F8B53A4B8E
:101C30001B68002B69D1394B1D6801351D60C5B982
:101C4000374B1B681B6843B14FF0500383F3118877
:101C5000BFF36F8FBFF34F8FFEE7314A1168314BEF
:101C6000186810601960304A136801331360FFF779
:101C7000CDFD2E4B1B68AB423DD900272C4B1B687A
:101C8000DB6A03EB83039A002A4B9B58012B00D994
:101C90000127294B1B68002B3CD001273AE0012784
:101CA0001F4B1B681B6843B31D4B1B68DB68DC685C
:101CB00063689D4226D3261D3046FFF793FDA36A35
:101CC0001BB104F11800FFF78DFDE36A01229A4071
:101CD0001A49086802430A6003EB83039A003146FD
:101CE00014481044FFF75AFDE26A114B1B68DB6A87
:101CF0009A42D4D2D4E70027D2E70C4B4FF0FF3200
:101D00001A60BBE7094A1360B8E70D4A136801334C
:101D1000136000273846F8BDB403002038040020C3
:101D2000180300201C030020F0030020EC03002017
:101D300014030020200300203C040020BC030020EA
:101D4000F403002038B5354B1B6843B94FF05003FE
:101D500083F31188BFF36F8FBFF34F8FFEE700F05F
:101D6000B9F92E4B1A68013A1A601B68002B4FD143
:101D70002B4B1B680BB900244BE00024294B1B683C
:101D80001BB3284BDB68DC6804F11800FFF72AFD61
:101D9000251D2846FFF726FDE06A01238340224ADD
:101DA00011680B43136000EB800029461F4B03EBC7
:101DB0008000FFF7F3FCE26A1D4B1B68DB6A9A4266
:101DC000DCD31C4B01221A60D8E70CB1FFF71EFDD3
:101DD000194B1C6884B9174B1C68D4B14FF0E02331
:101DE0004FF08052C3F8042DBFF34F8FBFF36F8FB6
:101DF00001240EE0013C07D0FFF718FF0028F9D0BE
:101E00000C4B01221A60F5E70B4B00221A60E2E747
:101E1000002400F081F9204638BD00BFB403002043
:101E2000AC030020F8030020BC03002020030020A6
:101E3000140300203C040020F403002010B5A8B1D6
:101E40000446104B1B6843B14FF0500383F31188D5
:101E5000BFF36F8FBFF34F8FFEE7FFF7DFFE002169
:101E60002046FFF719FEFFF76DFF48B94FF0E0235A
:101E70004FF08052C3F8042DBFF34F8FBFF36F8F25
:101E800010BD00BFB4030020204B1B681BB1204BCA
:101E900001221A6070471E4B00221A601D4B1B68FE
:101EA000B3FA83F3DBB2C3F11F0303EB83018A00B0
:101EB00019498A5842B94FF0500383F31188BFF390
:101EC0006F8FBFF34F8FFEE7134903EB8300820050
:101ED0000A4450684068506003EB830C4FEA8C0260
:101EE00008321144884209D003EB83039A000A4B5D
:101EF00013445B68DA68094B1A60704740686246B1
:101F00009100054A0A445060EEE700BFB403002088
:101F10003C040020BC030020200300201403002008
:101F2000164B1A461B688342FBD3516802EB010C27
:101F3000844509D0416800EB010C634509D003607A
:101F4000904219D0106070474068014451601046BB
:101F5000F0E710B40A4C2468A3420BD05B68194424
:101F6000416013681B680360904200D010605DF808
:101F7000044B70470460F7E7704700BF500400202F
:101F800040040020002834D038B50446A0F10805EC
:101F900050F8043C174A1268134208D14FF050031E
:101FA00083F31188BFF36F8FBFF34F8FFEE750F8B5
:101FB000081C41B14FF0500383F31188BFF36F8FBA
:101FC000BFF34F8FFEE723EA020340F8043CFFF71C
:101FD00025FE54F8041C084A13680B441360284675
:101FE000FFF79EFF054A136801331360FFF7AAFE4F
:101FF00038BD704744040020480400204C040020F1
:1020000082B0002301930D4B1B68B3F1FF3F08D052
:102010004FF0500383F31188BFF36F8FBFF34F8FDF
:10202000FEE74FF0500383F31188BFF36F8FBFF3C8
:102030004F8F019B002BFCD002B070470C0000209A
:1020400008480068006880F308884FF0000080F3BB
:10205000148862B661B6BFF34F8FBFF36F8F00DF96
:1020600000BF000008ED00E0DFF80C00016841F45B
:10207000700101607047000088ED00E04FF0807350
:1020800040F8043C21F0010140F8081C054B40F8E1
:102090000C3C40F8202C6FF0020340F8243C4438FC
:1020A000704700BF01200008000000000000000091
:1020B000074B19680868B0E8F04F80F30988BFF350
:1020C0006F8F4FF0000080F311887047AFF30080EE
:1020D000140300204FF0500383F31188BFF36F8F78
:1020E000BFF34F8F0B4A136801331360012B00D0ED
:1020F00070474FF0E023D3F8043D13F0FF0FF7D003
:102100004FF0500383F31188BFF36F8FBFF34F8FEE
:10211000FEE700BF0C000020094B1B6843B94FF0DD
:10212000500383F31188BFF36F8FBFF34F8FFEE728
:10213000013B034A13600BB983F31188704700BF5A
:102140000C00002000000000000000000000000063
:10215000EFF30980BFF36F8F154B1A681EF0100F55
:1021600008BF20ED108A20E9F04F10602DE909002A
:102170004FF0500080F31188BFF34F8FBFF36F8F84
:10218000FFF782FE4FF0000080F3118809BC196848
:102190000868B0E8F04F1EF0100F08BFB0EC108ACE
:1021A00080F30988BFF36F8F704700BFAFF30080E3
:1021B0001403002008B54FF0500383F31188BFF3D8
:1021C0006F8FBFF34F8FFFF731FD28B14FF0E02342
:1021D0004FF08052C3F8042D002383F3118808BD0B
:1021E0004FF0E022002313619361054B1B68054902
:1021F000A1FB03139B09013B536107231361704744
:1022000008000020D34D62104FF0E023D3F8002DDA
:102210003D4B9A421CD04FF0E023D3F8002D3B4BAE
:102220009A421ED030B583B0394B1A78D2B201929F
:10223000FF221A701B78DBB28DF803309DF8033053
:1022400003F05003334A1370334B07221A601BE02C
:102250004FF0500383F31188BFF36F8FBFF34F8F9D
:10226000FEE74FF0500383F31188BFF36F8FBFF386
:102270004F8FFEE7284A1368013B13609DF8033037
:102280005B00DBB28DF803309DF8033013F0800F54
:10229000F0D1214B1B68032B08D04FF0500383F380
:1022A0001188BFF36F8FBFF34F8FFEE71B021A4AEF
:1022B000136003F4E0631360019BDBB2144A1370F4
:1022C0004FF0E024D4F8203D43F47003C4F8203DDF
:1022D000D4F8203D43F07043C4F8203DFFF780FF61
:1022E00000250E4B1D60FFF7BFFED4F8343F43F0CE
:1022F0004043C4F8343FFFF7A3FEFFF7C5FDFFF7E7
:102300007FFE284603B030BD71C20F4170C20F413D
:1023100000E400E0580400205C0400200C000020D1
:10232000DFF834D0FFF716FA0C480D490D4A0023A8
:1023300002E0D458C4500433C4188C42F9D30A4A7A
:102340000A4C002301E013600432A242FBD300F0E8
:1023500011F8FEF76DF970470080012000000020A1
:10236000100000203024000810000020600400202D
:10237000FEE7000070B50D4D0D4C641BA410002647
:10238000A64209D10B4D0C4C00F020F8641BA410A0
:102390000026A64205D170BD55F8043B984701368A
:1023A000EEE755F8043B98470136F2E72824000889
:1023B00028240008282400082C240008024403468E
:1023C000934200D1704703F8011BF9E7F8B500BF4D
:1023D000F8BC08BC9E467047F8B500BFF8BC08BC06
:0423E0009E4670475E
:1023E40048656C6C6F20776F726C640D0A00000096
:1023F40046697273745461736B000000000000003E
:1024040000000000010203040607080900000000A0
:0C2414000102030449444C450000000094
:08242000F0DDFF7F0100000068
:04242800C5010008E2
:04242C00A101000802
:1024300001000000100000000024F400AAAAAAAACB
:0400000508002321AB
:00000001FF
